:020000040800F2
:10000000081201207902000839670008E149000858
:1000100035670008D5080008B56F0008000000002B
:10002000000000000000000000000000DD67000884
:100030002909000800000000A96700085D680008A1
:10004000930200089302000893020008930200083C
:10005000930200089302000893020008930200082C
:10006000930200089302000893020008930200081C
:1000700093020008D90800089302000893020008C0
:1000800093020008930200089302000893020008FC
:1000900093020008930200089302000893020008EC
:1000A00093020008930200084D69000893020008BB
:1000B00093020008930200089302000893020008CC
:1000C00093020008F5490008E5490008930200087A
:1000D00093020008930200089302000893020008AC
:1000E0002D090008930200089302000893020008FB
:1000F000796900085D69000893020008E9080008B2
:10010000930200089302000893020008930200087B
:10011000930200089302000893020008930200086B
:1001200093020008930200089302000809090008DE
:1001300019090008930200089302000893020008BE
:10014000930200089302000893020008930200083B
:10015000930200089302000893020008930200082B
:10016000930200089302000893020008930200081B
:1001700093020008930200089302000800000000A8
:1001800093020008930200089302000893020008FB
:1001900093020008AD67000893020008930200086C
:1001A000A95E0008995E0008F908000800F002F84E
:1001B00000F052F814A696E8000CB244B344DA45B5
:1001C00001D100F049F8BAE80F000FA696E8300018
:1001D000A5EB040504EB0607AAEB0704A7F101074A
:1001E0004FEA15154FEA3414A4F10104AC4201D3CF
:1001F00000F032F813F0010F18BFFB1A43F00103AF
:1002000000F001F8DBE718473CFF06005CFF060042
:10021000103A24BF78C878C1FAD8520724BF30C832
:1002200030C144BF04680C60704700007047000094
:100230000023002400250026103A28BF78C1FBD8EF
:10024000520728BF30C148BF0B6070471FB54DF043
:10025000BCFB1FBD10B510BD00F0CBF91146FFF778
:10026000F5FF44F0F3FB00F0E9F903B4FFF7F2FF08
:1002700003BC00F0F1F90000094880470948004735
:10028000FEE7FEE7FEE7FEE7FEE7FEE7FEE7FEE746
:10029000FEE7FEE704480549054A064B70470000A3
:1002A00039690008AD010008080601200812012084
:1002B000080A0120080A012053EA020C00F06980B4
:1002C0002DE9F04B4FF00006002B1FBFB3FA83F56A
:1002D00003FA05F424FA05F65E4012BF1643B2FA9B
:1002E00082F502FA05F4C5F120051EBF22FA05FCCD
:1002F00044EA0C04203556EA044C4FEA144418BF73
:10030000641C4FF000084FF00009904271EB030CA1
:1003100039D3002919BFB1FA81F701FA07F6B0FA0B
:1003200080F700FA07F6C7F120071EBF20FA07FC86
:1003300046EA0C062037B6FBF4FCA7EB0507103F96
:1003400007F01F0BCBF120062CFA06F60CFA0BFB7C
:1003500044BFB3460026202FA4BF5E464FF0000BDB
:100360005BEA060C08BF4FF0010B19EB0B0948EBD9
:100370000608ABFB027C06FB02CC0BFB03CCC01BCC
:1003800071EB0C01C1E70B46024641464846BDE809
:10039000F08B13B5084318BF4FF0FF300146AFF3A1
:1003A0000080BDE81C40704740EA0103024630B5BA
:1003B0009B0710D14FF0013400E008C208C91D1B93
:1003C0009D4315EAC41FF8D013F0FF0102F8011B8A
:1003D0000DD01B0AF8E711F8013B002B02F8013B96
:1003E00005D011F8013B002B02F8013BF3D130BDE1
:1003F00010B5431C02E010F8011B71B18107FAD15E
:100400004FF0013202C88C1A8C4314EAC211F9D0A1
:10041000C01A0A0603D0C01E10BDC01A10BD0A04BF
:1004200001D0801E10BD0902FCD0401E10BD032A61
:1004300040F2308010F0030C00F0158011F8013B01
:10044000BCF1020F624498BF11F801CB00F8013BE8
:1004500038BF11F8013BA2F1040298BF00F801CBAC
:1004600038BF00F8013B11F0030300F02580083A83
:10047000C0F0088051F8043B083A51F804CBA0E8DA
:100480000810F5E7121D5CBF51F8043B40F8043B2F
:10049000AFF30080D20724BF11F8013B11F801CB64
:1004A00048BF11F8012B24BF00F8013B00F801CB35
:1004B00048BF00F8012B704710B5203AC0F00B8000
:1004C000B1E81850A0E81850B1E81850A0E818504A
:1004D000203ABFF4F5AF5FEA027C24BFB1E81850C0
:1004E000A0E8185044BF18C918C0BDE810405FEA22
:1004F000827C24BF51F8043B40F8043B08BF70479E
:10050000D20728BF31F8023B48BF11F8012B28BFA2
:1005100020F8023B48BF00F8012B70474FF0000263
:1005200000B5134694469646203922BFA0E80C50E9
:10053000A0E80C50B1F12001BFF4F7AF090728BFC4
:10054000A0E80C5048BF0CC05DF804EB890028BF40
:1005500040F8042B08BF704748BF20F8022B11F069
:10056000804F18BF00F8012B70470000000000000A
:1005700030B44FF0013C50F8042B51F8043BCCFA56
:1005800052F4D51A20D1FCB950F8042B51F8043B91
:10059000CCFA52F4D51A17D1B4B950F8042B51F84B
:1005A000043BCCFA52F4D51A0ED16CB950F8042B96
:1005B00051F8043BCCFA52F4D51A05D1002CDAD00C
:1005C00030BC4FF00000704729BAB1FA81F111F048
:1005D0001801D1F120008440F2D1CA40CB4012F082
:1005E000FF0213F0FF0330BCD01A7047704770470A
:1005F0007047754600F02CF8AE4605006946534634
:1006000020F00700854618B020B5FFF743FEBDE88F
:1006100020404FF000064FF000074FF000084FF069
:10062000000BAC46ACE8C009ACE8C009ACE8C009B6
:10063000ACE8C00921F007018D46704710B50446AB
:10064000AFF300802046BDE81040FFF70EBE00006B
:1006500000487047F000002001491820ABBEFEE7BB
:10066000260002007047000082B0019042F2003084
:10067000C4F2010000900099486820F440304860BE
:1006800001984268009948681043486001980168E1
:10069000486820F4807048600198016802694868E1
:1006A00040EA0220486001980168486820F04070E4
:1006B0004860019801688268486810434860019862
:1006C0000168886820F40060886001980168C26849
:1006D0008868104388600198806A0121C0F6007123
:1006E000884219D0FFE701980168886820F070609F
:1006F000886001980168826A886810438860019860
:100700000168886820F04050886001980168C26ADA
:100710008868104388600CE001980168886820F0C0
:100720007060886001980168886820F04050886097
:10073000FFE701980168886820F00200886001984E
:10074000027E0168886840EA42008860019890F85B
:100750002000C8B1FFE701980168486840F40060D4
:10076000486001980168486820F46040486001983A
:100770000168426A4EF20000CFF6FF7000EB423291
:1007800048681043486006E001980168486820F412
:1007900000604860FFE701980168C86A20F47000B3
:1007A000C86201980168C2690020CFF6F07000EBC2
:1007B0000252C86A1043C86201980168886820F430
:1007C00000708860019890F830200168886840EADD
:1007D0004220886001980168886820F48060886001
:1007E000019801684269886840EA8220886002B006
:1007F0007047000080B58020002211461AF080FE6C
:1008000080BD000080B58120002211461AF078FEDC
:1008100080BD000080B58220002211461AF070FED3
:1008200080BD000080B58CB00B9000200190069038
:1008300001210591079108220292089209910A90DC
:100840000B9807A903914FF48052049203F0A2F988
:100850000220009000F082FF0198DDF808C0059B9F
:100860000399049ADDF800E0CDF81CE0CDF820C033
:1008700009930A900B9803F08DF9029B0399049A4F
:1008800001984FF0030CCDF81CC0089309930A900F
:100890000B9803F07FF9029B0399049A05984FF097
:1008A000200CCDF818C04FF0040CCDF81CC00893F4
:1008B000099006980A900B9803F06CF90B9840F297
:1008C000AA2103F037F90CB080BD000080B500F01C
:1008D0005BF980BDFFE7FEE780B54FF65470C2F2CA
:1008E000000000F0ABFD80BD80B54FF6B470C2F2E1
:1008F000000000F0A3FD80BD80B54FF61470C2F279
:10090000000000F0F3FB80BD80B540F21400C2F29D
:10091000010000F093FD80BD80B540F27400C2F28A
:10092000010000F08BFD80BD7047000080B54FF4E2
:10093000005000F0E5FF80BD72B6FFE7FEE7000063
:1009400080B583B0029001910198006800BBFFE779
:100950000298006847F6FF718843019A0092516837
:10096000D2F808E0D2F80CC0136941EA0E0141EA5E
:100970000C0119435369194393691943D369194306
:10098000136A1943526A114308430299086025E02B
:100990000298006820F4F840019AD169136A526AFB
:1009A000194311430843029908600298406847F6CA
:1009B000FF718843019A5168D2F808E0D2F80CC060
:1009C000136941EA0E0141EA0C01194353691943C5
:1009D00092691143084302994860FFE7002003B081
:1009E00080BD000082B0019000910198406943F6FB
:1009F000FE718843009940EA410001994861002056
:100A000002B0704780B586B0049003910292002036
:100A10000190049800696FF31500039A11685368F8
:100A2000D2F808C0D26819436FF01F0303EB4C13D0
:100A3000194341EA422108430499086101F0A4F9ED
:100A40000190FFE7049880698006002815D5FFE72C
:100A50000298013080B1FFE7029840B1FFE701F052
:100A600093F90199401A0299884204D9FFE70320BB
:100A70008DF8170005E0FFE7E4E700208DF8170088
:100A8000FFE79DF8170006B080BD000010B583B0E9
:100A90000290019100920098A8BBFFE7029880683D
:100AA00000F07040019A11685468D2F808E0D2F85A
:100AB0000CC001396FF00F0303EB041319436FF0FF
:100AC000FF0303EB0E2319434FF20003CFF6FF732E
:100AD00003EB0C331943D2F810C00023CFF6FF7399
:100AE00003EB0C431943D2F814C00023CFF6F07384
:100AF00003EB0C5319439269013A41EA026108433E
:100B0000029988603CE00298806840F6FF71CFF659
:100B10000F7108400199CA684B694FF20001CFF686
:100B2000FF7101EB02310022CFF6F07202EB0352AB
:100B300011430843029988600298C06800F0704031
:100B4000019A11685468D2F808E0D2F810C001394F
:100B50006FF00F0303EB041319436FF0FF0303EB74
:100B60000E2319430023CFF6FF7303EB0C43194305
:100B70009269013A41EA026108430299C860FFE7BD
:100B8000002003B010BD000080B58EB000200D9095
:100B90000C900B900A900990FFE70020089043F614
:100BA0003000C4F20200016841F0080101600068F1
:100BB00000F0080008900898FFE74FF400500090FC
:100BC0000990012003900A900B90002004900C9053
:100BD00040F60040C4F20200059009A9069100F019
:100BE000ABFE049A42F20000C4F2020001904FF4FE
:100BF0008071029101F0B0F80099049A059801F013
:100C0000ABF80520079000F0A9FD01980299039A1E
:100C100001F0A2F8079800F0A1FD049A0598069942
:100C20000A9200F089FE079800F098FD0EB080BD92
:100C300085B00390029100200190FFE7039890F89F
:100C40003C00012804D1FFE702208DF8130007E1E2
:100C50000399012081F83C00FFE7FFE70298006854
:100C60000A281CD3FFE70298008800EB4000A0F19F
:100C70001E01072000FA01F203980168C86890433A
:100C8000C86002998868098801EB41011E3900FAA1
:100C900001F203980168C8681043C86018E0029820
:100CA000008800EB4001072000FA01F20398016878
:100CB00008699043086102998868098801EB41013D
:100CC00000FA01F203980168086910430861FFE720
:100CD0000298406806281BD8FFE70298406800EB9E
:100CE0008000411F1F2000FA01F203980168486B41
:100CF0009043486302990888496801EB81010539EE
:100D000000FA01F203980168486B104348633DE024
:100D1000029840680C281CD8FFE70298406800EB56
:100D20008000A0F123011F2000FA01F2039801685E
:100D3000086B9043086302990888496801EB8101B8
:100D4000233900FA01F203980168086B1043086325
:100D50001BE00298406800EB8000A0F141011F20D9
:100D600000FA01F203980168C86A9043C8620299C8
:100D70000888496801EB8101413900FA01F20398C2
:100D80000168C86A1043C862FFE7FFE742F200301B
:100D9000C4F2010000900398006842F20001C4F21E
:100DA0000101884210D1FFE70298006812280BD198
:100DB000FFE70099486820F40000486000994868FF
:100DC00040F480004860FFE70398006842F20001A9
:100DD000C4F20101884239D1FFE70298006812216C
:100DE000C1F20001884205D0FFE70298006811288F
:100DF0002CD1FFE70099486820F4800048600099F2
:100E0000486840F400004860029800681221C1F26E
:100E10000001884219D1FFE740F20000C2F2000051
:100E200000684DF68361C4F21B31A0FB0110800CF9
:100E300000EB800040000190FFE7019820B1FFE740
:100E4000019801380190F8E7FFE7FFE7FFE7039912
:100E5000002081F83C00FFE700208DF81300FFE739
:100E60009DF8130005B0704780B584B00290002053
:100E70008DF80700029820B9FFE701208DF80F00D8
:100E800042E00298806A0121C0F60071884201D0D8
:100E9000FFE7FFE70298006C50B9FFE7029800F007
:100EA00037F8029900204864029981F83C00FFE776
:100EB0000298006CC006002817D4FFE70298006C67
:100EC00040F0020020F48850029908640298FFF76D
:100ED000CBFB0299002048640298006C40F00100AE
:100EE00020F002000299086403E001208DF8070059
:100EF000FFE7FFE70299002081F83C00FFE79DF83B
:100F000007008DF80F00FFE79DF80F0004B080BDCB
:100F100080B588B00790002006900590049003905B
:100F200002900798006842F20001C4F20101884271
:100F30002FD1FFE7FFE70020019043F64400C4F201
:100F40000200016841F480710160006800F4807063
:100F500001900198FFE7FFE70020009043F6300082
:100F6000C4F20200016841F001010160006800F074
:100F7000010000900098FFE70620029003200390F4
:100F8000002004900020C4F2020002A900F0D4FC6A
:100F9000FFE708B080BD000081B0009001B070474D
:100FA00086B00490039104984068B0F5403F06D0A5
:100FB000FFE70498406808B1FFE7FFE7FFE7FFE7B6
:100FC000049890F83800012804D1FFE702208DF83A
:100FD000170086E00499012081F83800FFE7FFE759
:100FE0000499022081F839000498039900EB01105C
:100FF0001830029002994868896840EA01400090E0
:101000000F20CFF603700190029840680A2805D09F
:10101000FFE702984068092807D1FFE70298C17BE3
:10102000009840EA0160009006E00298C1680098CC
:1010300040EA01600090FFE7039810BBFFE70498C7
:101040000068406A01998843009908430499096837
:1010500048620298006804990968886102984068AB
:101060000A2805D0FFE702984068092808D1FFE761
:101070000298C06820F07F40049909688862FFE701
:1010800021E004980068C0690199884300990843E9
:1010900004990968C86102980068049909680861A0
:1010A000029840680A2805D0FFE70298406809289E
:1010B00008D1FFE70298C06820F07F4004990968D2
:1010C0000862FFE7FFE70499012081F83900FFE794
:1010D0000499002081F83800FFE700208DF8170000
:1010E000FFE79DF8170006B07047000080B584B098
:1010F00003900398006840680290039800680068B5
:1011000001909DF80800C00740B3FFE79DF8050077
:10111000C00710B3FFE703980168086820F48070E7
:1011200008600399C86B40F00100C8630398016828
:10113000012088600399042081F83900FFE70399B2
:10114000002081F83800FFE70398406920B1FFE7ED
:10115000039841698847FFE7FFE7FFE79DF808002C
:101160008006002829D5FFE79DF8050080060028A5
:1011700022D5FFE703980168086820F40050086052
:1011800003980168202088600399C86B40F0020032
:10119000C8630399042081F83900FFE70399002010
:1011A00081F83800FFE70398406920B1FFE7039812
:1011B00041698847FFE7FFE7FFE79DF80800000760
:1011C000002829D5FFE79DF805000007002822D553
:1011D000FFE703980168086820F40060086003983E
:1011E0000168082088600399C86B40F00400C86358
:1011F0000399042081F83900FFE70399002081F862
:101200003800FFE70398406920B1FFE70398416980
:101210008847FFE7FFE7FFE79DF808004007002841
:1012200015D5FFE79DF80500400700280ED5FFE71C
:1012300003980168086820F48060086003980168DA
:1012400004208860039800F0A1F8FFE7FFE79DF80D
:1012500008008007002827D5FFE79DF805008007D4
:10126000002820D5FFE703980168086820F4007083
:10127000086003980168022088600399C86BC863FE
:101280000399012081F83900FFE70399002081F8D4
:101290003800FFE70398006920B1FFE70398016970
:1012A0008847FFE7FFE7FFE79DF80800C006002832
:1012B00022D5FFE79DF80500C00600281BD5FFE7F3
:1012C00003980168086820F480500860039801685A
:1012D000102088600399C86BC8630399012081F8C6
:1012E0003900FFE70399002081F83800FFE70398F1
:1012F000FFF752FEFFE7FFE704B080BD80B582B084
:101300000090009820B9FFE701208DF8070039E030
:10131000009890F8390040B9FFE70099002081F863
:101320003800009800F036F8FFE70099022081F8B5
:10133000390000980068006820F44030009A116875
:1013400052681043086000980068406B20F0070066
:10135000009A116892681043486300980068006C16
:1013600043F6FF718843009A1168D26810430864FD
:1013700000990020C863009A012182F839108DF885
:101380000700FFE79DF8070002B080BD81B0009024
:1013900001B0704780B584B00390039800684BF2A9
:1013A0000001C4F2020188421BD1FFE7FFE70020E1
:1013B000029043F63000C4F20200016841F40001DB
:1013C0000160006800F4000002900298FFE75A20D4
:1013D00001900521002201F0D9FB019801F0CCFB1E
:1013E000FFE704B080BD000082B00090009890F844
:1013F0003500022807D0FFE70099802048650120CA
:101400008DF807000EE00099052081F8350000985E
:101410000168086820F001000860FFE700208DF8EF
:101420000700FFE79DF8070002B0704781B0009009
:10143000009890F8350001B07047000080B586B084
:1014400005900020039040F20000C2F20000006806
:1014500048F2B511C1F64E31A0FB0110800A02908E
:101460000598806D01900198006804900498059992
:10147000C96DC840000700281AD5FFE70598006825
:1014800000684007002812D5FFE705980168086842
:1014900020F0040008600598C16D0820884001997B
:1014A00088600599486D40F001004865FFE7FFE757
:1014B00004980599C96DC840C007A0B1FFE7059819
:1014C00000684069000600280CD5FFE70598C16D4B
:1014D00001208840019988600599486D40F002001C
:1014E0004865FFE7FFE704980599C96DC8404007C4
:1014F000002814D5FFE705980068006880070028D9
:101500000CD5FFE70598C16D0420884001998860DB
:101510000599486D40F004004865FFE7FFE704982F
:101520000599C96DC840C006002847D5FFE7059852
:1015300000680068000700283FD5FFE70598C16DE7
:101540001020884001998860059800680068400371
:1015500000281AD5FFE705980068006800030028F6
:1015600009D4FFE70598006C20B1FFE70598016CEE
:101570008847FFE708E00598806C20B1FFE70598F1
:10158000816C8847FFE7FFE716E005980068006870
:10159000C005002807D4FFE705980168086820F017
:1015A00008000860FFE70598006C20B1FFE7059888
:1015B000016C8847FFE7FFE7FFE7FFE7049805991D
:1015C000C96DC8408006002840F18D80FFE705986E
:1015D00000680068C006002840F18480FFE7059895
:1015E000C16D2020884001998860059890F83500E9
:1015F000052834D1FFE705980168086820F0160037
:10160000086005980168486920F0800048610598E5
:10161000006C20B9FFE70598806C38B1FFE70598AA
:101620000168086820F008000860FFE70598C16DB0
:101630003F208840019988600599012081F8350094
:10164000FFE70599002081F83400FFE70598006D59
:1016500020B1FFE70598016D8847FFE77BE005981B
:1016600000680068400300281AD5FFE70598006865
:1016700000680003002809D4FFE70598406C20B1FA
:10168000FFE70598416C8847FFE708E00598C06BC5
:1016900020B1FFE70598C16B8847FFE7FFE720E02F
:1016A000059800680068C005002811D4FFE7059878
:1016B0000168086820F0100008600599012081F891
:1016C0003500FFE70599002081F83400FFE7FFE7C8
:1016D0000598C06B20B1FFE70598C16B8847FFE70D
:1016E000FFE7FFE7FFE70598406DA0B3FFE7059828
:1016F000406DC00730B3FFE70599052081F835003C
:1017000005980168086820F001000860FFE7039869
:10171000013003900299884201D9FFE707E0FFE713
:10172000059800680068C0070028F0D1FFE7059918
:10173000012081F83500FFE70599002081F8340089
:10174000FFE7FFE70598C06C20B1FFE70598C16C83
:101750008847FFE7FFE706B080BD000080B584B092
:10176000039000F011FB0290039801900198013062
:1017700048B1FFE740F2E100C2F2000001780198B1
:1017800008440190FFE7FFE700F0FEFA0299401AD3
:101790000199884201D2FFE7F6E704B080BD00005E
:1017A00080B58CB000200B900A90099008900790AB
:1017B00040F25010C2F20000006808B1FFE797E065
:1017C00040F25011C2F2000101200860FFE7002042
:1017D000069043F63800C4F20200016841F00101AE
:1017E0000160006800F0010006900698FFE74FF6E0
:1017F0003F0007900220019008900020029009907D
:10180000032003900A900C2004900B9041F20040BA
:10181000C4F2020007A9059100F08EF8DDF804C0BB
:10182000029B039A049805994FF0010ECDF81CE035
:10183000CDF820C009930A920B9040F60000C4F244
:10184000020000F079F8DDF804C0029B039A0498C6
:10185000059948F2371ECDF81CE0CDF820C0099359
:101860000A920B9041F60000C4F2020000F064F806
:10187000DDF804C0029B039A049805994FF6837E15
:10188000CDF81CE0CDF820C009930A920B9041F2EC
:101890000000C4F2020000F04FF8DDF804C0029B23
:1018A000039A049805994FF0C00ECDF81CE0CDF8CE
:1018B00020C009930A920B9041F60040C4F2020046
:1018C00000F03AF8DDF804C0029B039A04980599E9
:1018D0004CF2037ECDF81CE0CDF820C009930A92AB
:1018E0000B9040F60040C4F2020000F025F8FFE73C
:1018F0000CB080BD81B0ADF8020001B070470000AF
:1019000080B582B0ADF8060043F61440C4F2010081
:101910000068BDF8061008420CD0FFE7BDF80600CD
:1019200043F61441C4F201010860BDF80600FFF758
:10193000E1FFFFE702B080BD90B00F900E91002054
:101940000C900B900A900D90FFE70D980F2800F275
:10195000E881FFE70D99012088400C900E980068FF
:101960000C9908400B900B980C99884240F0D48158
:10197000FFE70E98406800F00300012807D0FFE75A
:101980000E98406800F0030002282FD1FFE70F985F
:1019900080680A900D984100032000FA01F10A982E
:1019A00088430A900E98C0680D99490000FA01F129
:1019B0000A9808430A900A980F9988600F9840681F
:1019C0000A900D99012000FA01F10A9888430A90C3
:1019D0000E984068C0F300100D9900FA01F10A98C2
:1019E00008430A900A980F994860FFE70E984068EC
:1019F00000F00300032818D0FFE70F98C0680A9092
:101A00000D984100032000FA01F10A9888430A90DA
:101A10000E9880680D99490000FA01F10A98084370
:101A20000A900A980F99C860FFE70E98406800F086
:101A30000300022826D1FFE70F980D996FF00302EB
:101A400002EA51010844006A0A900D9800F007006C
:101A500081000F2000FA01F10A9888430A900E983D
:101A600000690D9901F00701890000FA01F10A9857
:101A700008430A900A980F990D9B02EA53021144F9
:101A80000862FFE70F9800680A900D984100032054
:101A900000FA01F10A9888430A900E98406800F015
:101AA00003000D99490000FA01F10A9808430A90D1
:101AB0000A980F9908600E9880798007002800F036
:101AC0002A81FFE7FFE70020099043F64400C4F2B3
:101AD0000200016841F480410160006800F4804028
:101AE00009900998FFE70D9820F0030043F60801DC
:101AF000C4F2010140580A900D9800F003008100E3
:101B00000F2000FA01F10A9888430A900F980021EB
:101B1000C4F20201884203D1FFE7002008907AE076
:101B20000F9840F20041C4F20201884203D1FFE75E
:101B3000012007906CE00F9840F60001C4F202010A
:101B4000884203D1FFE7022006905EE00F9840F63E
:101B50000041C4F20201884203D1FFE7032005904F
:101B600050E00F9841F20001C4F20201884203D113
:101B7000FFE70420049042E00F9841F20041C4F2D4
:101B80000201884203D1FFE70520039034E00F985B
:101B900041F60001C4F20201884203D1FFE70620AA
:101BA000029026E00F9841F60041C4F202018842FB
:101BB00003D1FFE70720019018E00F9842F20001DF
:101BC000C4F20201884203D1FFE7082000900AE036
:101BD0000F9942F20042C4F202020A20914208BF69
:101BE00009200090FFE700980190FFE7019802901C
:101BF000FFE702980390FFE703980490FFE704983B
:101C00000590FFE705980690FFE706980790FFE725
:101C100007980890FFE70898C0B20D9901F00301FA
:101C2000890000FA01F10A9808430A900A980D9970
:101C300021F0030143F60802C4F20102885043F682
:101C40000840C4F2010000680A900B990A98884382
:101C50000A900E988079C006002805D5FFE70B99F9
:101C60000A9808430A90FFE70A9843F60841C4F22D
:101C70000101086043F60C40C4F2010000680A90BC
:101C80000B990A9888430A900E988079800600285C
:101C900005D5FFE70B990A9808430A90FFE70A98D1
:101CA00043F60C41C4F20101086043F60440C4F25B
:101CB000010000680A900B990A9888430A900E98D0
:101CC00080798007002805D5FFE70B990A9808431B
:101CD0000A90FFE70A9843F60441C4F20101086044
:101CE00043F60040C4F2010000680A900B990A987C
:101CF00088430A900E988079C00728B1FFE70B99B6
:101D00000A9808430A90FFE70A9843F60041C4F294
:101D100001010860FFE7FFE7FFE70D9801300D9034
:101D200013E610B07047000082B00190ADF80210C9
:101D300001980069BDF80210084204D0FFE70120B5
:101D40008DF8010003E000208DF80100FFE79DF809
:101D5000010002B07047000082B00190ADF802109F
:101D60008DF801209DF8010028B1FFE7BDF80200C1
:101D70000199886105E0BDF80200000401998861BD
:101D8000FFE702B07047000040F2E850C2F20100E5
:101D90000068704781B0009001B0704782B0019038
:101DA0008DF80310ADF8002002B0704780B58AB0FE
:101DB0000990099800684069049009980068406893
:101DC000039000200290099890F83E008DF80700DB
:101DD0009DF81100C00778B1FFE79DF80D00C0071E
:101DE00050B1FFE7029840F00100029009980168A5
:101DF0006FF480704861FFE79DF8110000F0020168
:101E00000020B0EB510F0FD0FFE79DF80D00C00789
:101E100050B1FFE7029840F0020002900998016873
:101E20006FF400704861FFE79DF8110000F00401B5
:101E30000020B0EB910F50D0FFE79DF80D00C007D8
:101E400000284AD0FFE79DF807008DF82300099885
:101E5000408D0790099890F83D008DF81B00099877
:101E6000006B05909DF8230020281AD1FFE7079802
:101E7000B8B9FFE79DF81B0021280ED0FFE79DF8B9
:101E80001B00292809D0FFE79DF81B00282808D14E
:101E9000FFE70598212804D1FFE7099803F028FE01
:101EA0001AE0099801686FF480604861029840F078
:101EB000040002909DF80700102805D0FFE79DF868
:101EC0000700402807D1FFE709980168086840F437
:101ED00000700860FFE7FFE7FFE79DF8110000F0E2
:101EE00008010020B0EBD10F0FD0FFE79DF80D00E7
:101EF000C00750B1FFE7029840F00800029009982F
:101F000001686FF400604861FFE7029848B1FFE79D
:101F1000029A0999086C10430864099802F04AFE75
:101F2000FFE70AB080BD000080B588B007900020B0
:101F3000059007980068406804900798C06A03906D
:101F4000079890F83E008DF80B00079890F83D0038
:101F50008DF80A009DF80B00102806D0FFE79DF8C9
:101F60000B00402840F00081FFE707980068806977
:101F7000059007980068406906900698C007A0B9C8
:101F8000FFE703990120B1F52A0F019008D0FFE780
:101F9000039800F1AC40B0FA80F040090190FFE7EF
:101FA0000198C00708B1FFE7A1E10698C00780B11A
:101FB000FFE79DF8110000F002010020B0EB510F87
:101FC00007D0FFE7079802F01DFD079803F090FB8C
:101FD000C9E09DF8180000F008010020B0EBD10F17
:101FE0000DD0FFE79DF8110000F002010020B0EBDA
:101FF000510F04D0FFE7079803F0B6F9B2E09DF85F
:10200000180000F002010020B0EB510F0DD0FFE7E7
:102010009DF8110000F002010020B0EB510F04D038
:10202000FFE7079803F0C4F99BE09DF8140000F067
:1020300004010020B0EB910F50D0FFE70798006833
:10204000406800F40060B0F5006F46D0FFE79DF8EF
:1020500018100020B0EBD11F16D0FFE79DF811003B
:1020600000F004010020B0EB910F0DD0FFE79DF8C8
:10207000180000F004010020B0EB910F04D1FFE73D
:10208000079803F0D1F827E09DF8180000F004014C
:102090000020B0EB910F1DD0FFE79DF8110000F07C
:1020A00002010020B0EB510F14D0FFE79DF80A00A9
:1020B000212804D1FFE7079803F046F809E09DF8CE
:1020C0000B00402804D1FFE7079803F089FBFFE7E6
:1020D000FFE700E0FFE7FFE7FFE741E00798006860
:1020E000406800F40060B0F5006F38D0FFE79DF85D
:1020F000180000F040010020B0EB911F16D0FFE760
:102100009DF8110000F004010020B0EB910F0DD0FC
:10211000FFE79DF8180000F004010020B0EB910FDC
:1021200004D1FFE7079802F059FF17E09DF8180067
:1021300000F004010020B0EB910F0DD0FFE79DF8F7
:10214000110000F002010020B0EB510F04D0FFE7B6
:10215000079802F06DFE00E0FFE7FFE7FFE7FFE70B
:10216000FFE7FFE7FFE7C2E00798006C28B1FFE751
:10217000079800684069069008E007980068806941
:1021800005900798006840690690FFE79DF81800E1
:1021900000F002010020B0EB510F17D0FFE79DF8CF
:1021A000110000F002010020B0EB510F0ED0FFE74C
:1021B0000798006C28B1FFE70798006880690590D0
:1021C000FFE70798059903F03BFC8FE09DF81800A6
:1021D00000F010010020B0EB111F0DD0FFE79DF8BB
:1021E000110000F002010020B0EB510F04D0FFE716
:1021F000079803F0EFFC78E09DF80A00212805D04D
:10220000FFE79DF80A00292836D1FFE79DF818104E
:102210000020B0EBD11F16D0FFE79DF8110000F0B1
:1022200004010020B0EB910F0DD0FFE79DF81800DE
:1022300000F004010020B0EB910F04D1FFE70798F4
:1022400003F0C8FB17E09DF8180000F0040100201F
:10225000B0EB910F0DD0FFE79DF8110000F00201E7
:102260000020B0EB510F04D0FFE7079803F09CFB70
:1022700000E0FFE7FFE737E09DF8180000F04001BD
:102280000020B0EB911F16D0FFE79DF8110000F081
:1022900004010020B0EB910F0DD0FFE79DF818006E
:1022A00000F004010020B0EB910F04D1FFE7079884
:1022B00003F042FB17E09DF8180000F00401002035
:1022C000B0EB910F0DD0FFE79DF8110000F0020177
:1022D0000020B0EB510F04D0FFE7079803F014FB88
:1022E00000E0FFE7FFE7FFE7FFE7FFE7FFE708B0F2
:1022F00080BD000081B0009001B0704781B00090B7
:1023000001B0704781B0009001B0704781B000907B
:1023100001B0704781B0009001B0704781B000906B
:1023200001B0704781B0009001B0704781B000905B
:1023300001B0704740F2E100C2F20000027840F2C2
:10234000E851C2F2010108681044086070470000BB
:1023500080B543F60041C4F20201086840F4007001
:102360000860086840F480600860086840F4807085
:102370000860032000F024FC0F2000F005F800F0B6
:10238000D5FB002080BD000080B582B0009040F2F7
:102390000000C2F20000006840F2E101C2F2000158
:1023A0000A784FF47A71B1FBF2F1B0FBF1F001F071
:1023B00051FD20B1FFE701208DF8070018E00098DB
:1023C0000F280DD8FFE700994FF0FF30002200F0F2
:1023D000DDFB009840F2E401C2F20001086003E076
:1023E00001208DF8070003E000208DF80700FFE7CB
:1023F0009DF8070002B080BDB0B586B0049003918F
:102400000292FFE7049890F8A000012804D1FFE7AA
:1024100002208DF8170049E00499012081F8A000FE
:10242000FFE7FFE70499022081F8A100049A0298CF
:10243000342100FB01210091039801900268436858
:10244000D0F808C0D0F80CE004694569CD648C640C
:10245000C1F844E0C1F840C0CB638A638269C369B4
:10246000D0F820C0D0F824E0846AC56A4D660C66B6
:10247000C1F85CE0C1F858C04B650A65006B88661E
:1024800004980399029A03F017FD0498016801204B
:102490004862049981F8A100FFE70499002081F8BF
:1024A000A000FFE700208DF81700FFE79DF8170058
:1024B00006B0B0BD81B0009001B0704780B584B067
:1024C000039003980068806B029003980068406B4B
:1024D00001909DF808004007002824D5FFE79DF8EB
:1024E0000400400700281ED5FFE703980168486BE9
:1024F00020F004004863039801680420C863039A2D
:10250000D2F8A41041F00101C2F8A410039981F897
:10251000A100FFE70399002081F8A000FFE70398DE
:10252000FFF7C8FFFFE79DF808008007002825D5C2
:10253000FFE79DF80400800700281FD5FFE70398F8
:102540000168486B20F0020048630398016802208C
:10255000C8630399D1F8A40040F00200C1F8A400B8
:102560000399042081F8A100FFE70399002081F876
:10257000A000FFE70398FFF79DFFFFE79DF8080025
:10258000C007E0B1FFE79DF80400C007B8B1FFE75E
:1025900003980168486B20F00100486303980168C4
:1025A0000120C863039981F8A100FFE70399002087
:1025B00081F8A000FFE7039800F0B6F8FFE79DF868
:1025C0000800000700281ED5FFE79DF8040000075B
:1025D000002818D5FFE703980168486B20F0080031
:1025E0004863039801680820C8630399012081F8B3
:1025F000A100FFE70399002081F8A000FFE70398FE
:1026000000F052FAFFE704B080BD000080B584B04E
:102610000290029820B9FFE701208DF80F007EE0BC
:10262000029890F8A10040B9FFE70299002081F8D4
:10263000A000029800F07CF8FFE70299022081F8E0
:10264000A10002980168886920F070408861029AB0
:1026500011685068D2F808C0D36840EA0C001843EB
:102660001269024388691043886102984069000436
:1026700001900198029A116892691043886002984B
:10268000C069000401900198029A1168126A10430F
:10269000C8600298406A000401900198029A11688B
:1026A000926A104308610298C06A00040190019880
:1026B000029A1168126B10434861029890F8350035
:1026C00000020190029890F83600000400900298F1
:1026D0000168C86A00F07F40C86200980199014310
:1026E000029890F834200A430168C86A1043C8620F
:1026F00002980168486B40F0060048630298016840
:10270000886940F00100886102990020C1F8A400A6
:10271000029A012182F8A1108DF80F00FFE79DF8C1
:102720000F0004B080BD000081B0009001B0704780
:1027300010B5A6B0259000202490239022902190DF
:10274000209014A83021FDF7E9FE2598006846F690
:102750000001C4F20101884240F0A381FFE7082094
:1027600014903C20189002201A9000201D9014A86C
:1027700000F08EFA18B1FFE7FEF7DEF8FFE7FFE79B
:102780000020139043F64400C4F20200016841F0B7
:1027900080610160006800F0806013901398FFE78B
:1027A000FFE70020129043F63000C4F202000168F7
:1027B00041F010010160006800F0100012901298C2
:1027C000FFE7FFE70020119043F63000C4F202005B
:1027D000016841F480710160006800F4807011901C
:1027E0001198FFE7FFE70020109043F63000C4F295
:1027F0000200016841F020010160006800F0200043
:1028000010901098FFE7FFE700200F9043F630008C
:10281000C4F20200016841F080010160006800F02C
:1028200080000F900F98FFE7FFE700200E9043F61F
:102830003000C4F20200016841F00101016000684B
:1028400000F001000E900E98FFE7FFE700200D90CA
:1028500043F63000C4F20200016841F00201016059
:10286000006800F002000D900D98FFE7FFE70020E0
:102870000C9043F63000C4F20200016841F04001C0
:102880000160006800F040000C900C98FFE7FFE743
:1028900000200B9043F63000C4F20200016841F0C2
:1028A00004010160006800F004000B900B98FFE742
:1028B000FFE700200A9043F63000C4F202000168EE
:1028C00041F008010160006800F008000A900A98D1
:1028D000FFE77020209002200790219000200890B0
:1028E00022900320039023900E200490249041F224
:1028F0000000C4F2020020A90691FFF71DF8DDF8E0
:102900001CC0039A04980699089B40F2156ECDF8F6
:1029100080E0CDF884C022932392249042F20000FC
:10292000C4F20200FFF708F8DDF81CC0039A04980F
:102930000699089B4FF480642094CDF884C02293BC
:102940002392249041F20040C4F20200FEF7F4FF0B
:10295000DDF81CC0039A04980699089B4AF20C1EE5
:10296000CDF880E0CDF884C022932392249041F6E4
:102970000040C4F20200FEF7DFFFDDF81CC0039A3E
:1029800004980699089B41F6080ECDF880E0CDF832
:1029900084C02293239224900020C4F20200FEF708
:1029A000CBFF079B03980699089A209021932292C7
:1029B000239009200190249040F20040C4F20200CC
:1029C0000590FEF7B9FFDDF81CC0039A049806993C
:1029D000089B4FF4C65ECDF880E0CDF884C022930A
:1029E0002392249041F60000C4F202000290FEF708
:1029F000A3FFDDF81CC0039A04980699089B4FF0CA
:102A0000800ECDF880E0CDF884C0229323922490EC
:102A100040F60000C4F20200FEF78EFFDDF81CC095
:102A2000039A04980699089B4FF0400ECDF880E079
:102A3000CDF884C022932392249040F60040C4F243
:102A40000200FEF779FF019A0298039B0699DDF8D0
:102A500020C0DDF81CE02094CDF884E0CDF888C0DB
:102A600023932492FEF768FF039B049A0598069926
:102A7000DDF820C0DDF81CE04FF440742094CDF860
:102A800084E0CDF888C023932492FEF755FF089A7E
:102A900059200990114600F079F8099800F06CF877
:102AA000FFE726B010BD000081B0009001B0704774
:102AB00080B586B0049003910292FFE7049890F8E5
:102AC000A000012804D1FFE702208DF8170029E0BB
:102AD0000499012081F8A000FFE7FFE70499022094
:102AE00081F8A100049A0298342100FB01203830BB
:102AF000019003980199486204980199029A03F0A1
:102B0000DBF90498016801204862049981F8A1006A
:102B1000FFE70499002081F8A000FFE700208DF86E
:102B20001700FFE79DF8170006B080BD82B0FFE7F1
:102B30000020019043F64400C4F20200016841F411
:102B400080410160006800F4804001900198FFE737
:102B5000FFE70020009043F64000C4F20200016845
:102B600041F080510160006800F0805000900098B2
:102B7000FFE702B07047000080B582B08DF8070013
:102B80009DF9070004F018FA02B080BD80B586B048
:102B90008DF81700049103920020029004F024FAAB
:102BA00002909DF91700019002980499039A03F08E
:102BB000C5FD0146019804F01FFA06B080BD000073
:102BC00080B582B00190019804F038FA02B080BD5F
:102BD00080B584B000200290FFE70020019043F60A
:102BE0004000C4F20200016841F0805101600068B9
:102BF00000F0805001900198FFE74021C4F20E21BF
:102C000001200860FFF7C0F80290FFE747F20400D8
:102C1000C4F20000006800F48030B0F5803F0DD0B1
:102C2000FFE7FFF7B1F80299401AB0F57A7F04D9AF
:102C3000FFE703208DF80F0025E0E7E74421C4F209
:102C40000E2101200860FFF79FF80290FFE747F28E
:102C50000400C4F20000006800F40030B0F5003F4A
:102C60000DD0FFE7FFF790F80299401AB0F57A7F90
:102C700004D9FFE703208DF80F0004E0E7E7002008
:102C80008DF80F00FFE79DF80F0004B080BD000035
:102C900080B586B0049000200390029004980068EC
:102CA00000F0010001280ED0FFE70498006800F052
:102CB0000200022807D0FFE70498007840060028A9
:102CC00040F18F80FFE76821C4F2472100200860AF
:102CD000FFF75AF80390FFE743F60000C4F2020042
:102CE000006800F000610020B0EBD16F0CD0FFE76E
:102CF000FFF74AF80399401A032804D3FFE703209B
:102D00008DF81700D0E1E7E704980078C00760B1BC
:102D1000FFE7049948688968800140EA017043F63A
:102D20008401C4F202010860FFE70498007880077C
:102D300000281FD5FFE743F68401C4F202010868AA
:102D4000C0F302700290049A5068D268800140EA91
:102D50000260029A40EA0270086043F68C01C4F2F5
:102D60000201086820F01F00049AD269013A10435A
:102D70000860FFE704980078400600280FD5FFE7B9
:102D8000049A50689168D268800140EA026040EA83
:102D9000017043F68401C4F202010860FFE7682174
:102DA000C4F2472101200860FEF7EEFF0390FFE721
:102DB00043F60000C4F20200006800F00061002049
:102DC000B0EBD16F0CD1FFE7FEF7DEFF0399401A9D
:102DD000032804D3FFE703208DF8170064E1E7E739
:102DE000FFE70498006800F00400042807D0FFE71C
:102DF000049800780007002840F19080FFE77021D8
:102E0000C4F2472100200860FEF7BEFF0390FFE7F1
:102E100043F60000C4F20200006800F000510020F8
:102E2000B0EB517F0CD0FFE7FEF7AEFF0399401ADD
:102E3000032804D3FFE703208DF8170034E1E7E708
:102E4000049800784007002822D5FFE743F6880160
:102E5000C4F202010868C0F302700290049A10697B
:102E60005269800140EA0260029A40EA02700860FA
:102E700043F68C01C4F20201086820F4F850049A69
:102E8000136A6FF0FF0202EB032210430860FFE7B2
:102E900004980078000700281ED5FFE743F6880154
:102EA000C4F202010868C0F303600290049A10693A
:102EB00092698001029B40EA036040EA0270086068
:102EC00043F68C01C4F20201086820F44030049AF1
:102ED000526A10430860FFE77021C4F247210120C5
:102EE0000860FEF751FF0390FFE743F60000C4F2CD
:102EF0000200006800F000510020B0EB517F0CD1BF
:102F0000FFE7FEF741FF0399401A032804D3FFE7C8
:102F100003208DF81700C7E0E7E7FFE70498007883
:102F20008006002840F1AD80FFE7FFE70020019018
:102F300043F64000C4F20200016841F08051016094
:102F4000006800F0805001900198FFE747F200010F
:102F5000C4F20001086840F480700860FEF714FFB6
:102F60000390FFE747F20000C4F200000068C005CC
:102F700000280CD4FFE7FEF707FF0399401A032847
:102F800004D3FFE703208DF817008DE0EAE743F64E
:102F90007000C4F20200006800F4407002900298D1
:102FA00000283ED0FFE702980499896A01F4407135
:102FB000884236D0FFE743F67000C4F20200016891
:102FC00021F44071029140F64062C4F2472201218F
:102FD000116000211160029901600068C007F8B11A
:102FE000FFE7FEF7D1FE0390FFE743F67000C4F25F
:102FF0000200006800F002010020B0EB510F0ED17A
:10300000FFE7FEF7C1FE0399401A41F28931884279
:1030100004D3FFE703208DF8170045E0E5E7FFE75D
:10302000FFE7FFE70498806A00F44070B0F5407F46
:1030300011D1FFE743F60801C4F20201086820F449
:10304000F810049A926A4FF6FF43C0F6FF731A40D5
:103050001043086008E043F60801C4F20201086862
:1030600020F4F8100860FFE70498826A6FF31F32BB
:1030700043F67001C4F20201086810430860FFE7DC
:10308000FFE704980078C006002809D5FFE70498F8
:1030900090F82C0041F2E011C4F247210860FFE7EC
:1030A00000208DF81700FFE79DF8170006B080BDDF
:1030B00080B584B002900191029820B9FFE7012009
:1030C0008DF80F0021E1019843F60041C4F202019E
:1030D000096801F00F01884212D9FFE7019943F610
:1030E0000040C4F202000170006800F00F00019976
:1030F000884204D0FFE701208DF80F0005E1FFE7CB
:1031000002980078800700282AD5FFE70298007807
:103110004007002809D5FFE743F60801C4F2020181
:10312000086840F4E0500860FFE702980078000764
:10313000002809D5FFE743F60801C4F20201086838
:1031400040F460400860FFE743F60801C4F2020162
:10315000086820F0F000029A926810430860FFE7C8
:1031600002980078C00700286ED0FFE702984068F8
:10317000012811D1FFE743F60000C4F20200006805
:1031800000F400310020B0EB514F04D1FFE70120E3
:103190008DF80F00B9E02CE002984068022805D0B5
:1031A000FFE702984068032811D1FFE743F60000CB
:1031B000C4F20200006800F000710020B0EB516F13
:1031C00004D1FFE701208DF80F009EE010E043F6E8
:1031D0000000C4F20200006800F002010020B0EB21
:1031E000510F04D1FFE701208DF80F008DE0FFE7BC
:1031F000FFE743F60801C4F20201086820F003006B
:10320000029A526810430860FEF7BEFD0090FFE787
:1032100043F60800C4F20200006800F00C000299B6
:103220004968B0EB810F0ED0FFE7FEF7ADFD0099C6
:10323000401A41F28931884204D3FFE703208DF818
:103240000F0062E0E4E7FFE7019843F60041C4F2B3
:103250000201096801F00F01884212D2FFE70199CB
:1032600043F60040C4F202000170006800F00F0055
:103270000199884204D0FFE701208DF80F0044E057
:10328000FFE702980078400700280CD5FFE743F6D7
:103290000801C4F20201086820F4E050029AD268E2
:1032A00010430860FFE702980078000700280DD55A
:1032B000FFE743F60801C4F20201086820F4604009
:1032C000029A126940EAC2000860FFE700F022F8A3
:1032D00043F60801C4F202010968C9B20A094DF6B1
:1032E000E411C0F60401895CC84040F20001C2F25A
:1032F0000001086040F2E400C2F200000068FFF73D
:1033000043F800208DF80F00FFE79DF80F0004B090
:1033100080BD000080B586B0002005900490039029
:10332000029043F60800C4F20200006800F00C00AE
:103330000146019140B1FFE7019804280AD0FFE758
:10334000019808280CD04FE042F20040C0F2F4008F
:1033500002904FE047F64000C0F27D10029049E035
:1033600043F60400C4F20200016801F03F01059138
:1033700000684002002813D5FFE743F60400C4F2BA
:1033800002000068C0F3881047F64001C0F27D11CA
:10339000A0FB0101059A0023FCF78EFF049012E0C8
:1033A00043F60400C4F202000068C0F3881042F241
:1033B0000041C0F2F401A0FB0101059A0023FCF7D3
:1033C0007BFF0490FFE743F60400C4F202000068AC
:1033D00000F44031022000EBD130039004980399AF
:1033E000B0FBF1F0029005E042F20040C0F2F400C0
:1033F0000290FFE7029806B080BD000080B586B05D
:103400000490049820B9FFE701208DF8170050E3DD
:1034100004980078C007002800F0A580FFE743F675
:103420000800C4F20200006800F00C00042813D069
:10343000FFE743F60800C4F20200006800F00C0049
:1034400008281ED1FFE743F60400C4F2020000681A
:103450004002002815D5FFE743F60000C4F2020041
:10346000006800F400310020B0EB514F08D0FFE7B6
:103470000498406820B9FFE701208DF8170018E391
:1034800070E0FFE704984068B0F5803F09D1FFE79E
:1034900043F60001C4F20201086840F4803008607D
:1034A00020E004984068B0F5A02F0DD1FFE743F667
:1034B0000001C4F20201086840F480200860086836
:1034C00040F4803008600CE043F60001C4F20201D1
:1034D000086820F480300860086820F480200860C4
:1034E000FFE7FFE7FFE704984068E8B1FFE7FEF772
:1034F0004BFC0390FFE743F60000C4F202000068B3
:1035000000F400310020B0EB514F0CD1FFE7FEF783
:103510003BFC0399401A652804D3FFE703208DF88C
:103520001700C6E2E7E71CE0FEF72EFC0390FFE77A
:1035300043F60000C4F20200006800F400310020ED
:10354000B0EB514F0CD0FFE7FEF71EFC0399401A79
:10355000652804D3FFE703208DF81700A9E2E7E709
:10356000FFE7FFE7FFE7049800788007002840F1B5
:103570009680FFE743F60800C4F20200006810F0EE
:103580000C0F13D0FFE743F60800C4F202000068F6
:1035900000F00C0008282CD1FFE743F60400C4F229
:1035A000020000684002002823D4FFE743F6000031
:1035B000C4F20200006800F002010020B0EB510FDD
:1035C00009D0FFE70498C068012804D0FFE7012074
:1035D0008DF817006DE243F60001C4F2020108689D
:1035E00020F0F800049A126940EAC2000860FFE780
:1035F00054E00498C06870B3FFE70021C4F247218B
:1036000001200860FEF7C0FB0390FFE743F60000CF
:10361000C4F20200006800F002010020B0EB510F7C
:103620000CD1FFE7FEF7B0FB0399401A032804D33F
:10363000FFE703208DF817003BE2E7E743F60001C0
:10364000C4F20201086820F0F800049A126940EA06
:10365000C200086021E00021C4F247210020086078
:10366000FEF792FB0390FFE743F60000C4F202006E
:10367000006800F002010020B0EB510F0CD0FFE712
:10368000FEF782FB0399401A032804D3FFE70320C7
:103690008DF817000DE2E7E7FFE7FFE7FFE7049883
:1036A0000078000700284BD5FFE70498406918B35D
:1036B000FFE740F68061C4F2472101200860FEF771
:1036C00063FB0390FFE743F67400C4F20200006856
:1036D00000F002010020B0EB510F0CD1FFE7FEF724
:1036E00053FB0399401A032804D3FFE703208DF806
:1036F0001700DEE1E7E722E040F68061C4F24721EF
:1037000000200860FEF740FB0390FFE743F67400DB
:10371000C4F20200006800F002010020B0EB510F7B
:103720000CD0FFE7FEF730FB0399401A032804D3BF
:10373000FFE703208DF81700BBE1E7E7FFE7FFE7AE
:10374000049800784007002840F1CE80FFE7002071
:103750008DF8070043F64000C4F202000068C00084
:10376000002815D4FFE7FFE70020009043F6400053
:10377000C4F20200016841F080510160006800F06D
:10378000805000900098FFE701208DF80700FFE7C8
:1037900047F20000C4F200000068C005002822D4EF
:1037A000FFE747F20001C4F20001086840F48070AE
:1037B0000860FEF7E9FA0390FFE747F20000C4F261
:1037C00000000068C00500280CD4FFE7FEF7DCFA13
:1037D0000399401A032804D3FFE703208DF817004C
:1037E00067E1EAE7FFE7FFE704988068012809D16D
:1037F000FFE743F67001C4F20201086840F00100DF
:1038000008601FE00498806805280DD1FFE743F6A3
:103810007001C4F20201086840F004000860086802
:1038200040F0010008600CE043F67001C4F20201B0
:10383000086820F001000860086820F004000860B3
:10384000FFE7FFE7FFE704988068F8B1FFE7FEF7BE
:103850009BFA0390FFE743F67000C4F20200006891
:1038600000F002010020B0EB510F0ED1FFE7FEF790
:103870008BFA0399401A41F28931884204D3FFE759
:1038800003208DF8170014E1E5E71EE0FEF77CFA4F
:103890000390FFE743F67000C4F20200006800F0F6
:1038A00002010020B0EB510F0ED0FFE7FEF76CFADB
:1038B0000399401A41F28931884204D3FFE703207B
:1038C0008DF81700F5E0E5E7FFE79DF80700012810
:1038D00009D1FFE743F64001C4F20201086820F075
:1038E00080500860FFE7FFE704988069002800F037
:1038F000DC80FFE743F60800C4F20200006800F035
:103900000C00082800F08580FFE7049880690228F1
:103910005CD1FFE76021C4F2472100200860FEF778
:1039200033FA0390FFE743F60000C4F20200006898
:1039300000F000710020B0EB516F0CD0FFE7FEF7F4
:1039400023FA0399401A032804D3FFE703208DF8D4
:103950001700AEE0E7E70499C869D1F820C04B6AC8
:103960008A6A40EA0C0040EA8310D2034FF6FF73E4
:103970009A43A2F580321043C96A40EA016043F6D7
:103980000401C4F2020108606021C4F24721012051
:103990000860FEF7F9F90390FFE743F60000C4F270
:1039A0000200006800F000710020B0EB516F0CD1F4
:1039B000FFE7FEF7E9F90399401A032804D3FFE76C
:1039C00003208DF8170074E0E7E721E06021C4F2DE
:1039D000472100200860FEF7D7F90390FFE743F680
:1039E0000000C4F20200006800F000710020B0EB9B
:1039F000516F0CD0FFE7FEF7C7F90399401A03286F
:103A000004D3FFE703208DF8170052E0E7E7FFE754
:103A10004AE004988069012804D1FFE701208DF86D
:103A2000170046E043F60400C4F20200006802906A
:103A300004988069012831D0FFE7029800F48000E3
:103A40000499C969884229D1FFE7029800F03F0034
:103A50000499096A884221D1FFE7029847F6C071AC
:103A600008400499496AB0EB811F17D1FFE702981B
:103A700000F440300499896AC9034FF6FF729143FC
:103A8000A1F58031884209D1FFE7029800F070600B
:103A90000499C96AB0EB016F04D0FFE701208DF8EB
:103AA000170006E0FFE7FFE7FFE700208DF81700AB
:103AB000FFE79DF8170006B080BD000080B584B018
:103AC00002900191029820B9FFE701208DF80F00C4
:103AD00023E0029890F82C0040B9FFE702990020FB
:103AE00081F82D00029800F01DF8FFE702990220EE
:103AF00081F82C00029951F8040BFCF721FF029A7F
:103B0000019910685268FCF7C1FF0299012081F801
:103B10002C0000208DF80F00FFE79DF80F0004B087
:103B200080BD000080B582B00190FDF739FE02B083
:103B300080BD000080B584B002900191029890F899
:103B40002C00022804D1FFE702208DF80F001CE0B2
:103B5000029890F82C0001280ED1FFE7029902206C
:103B600081F82C00029800680199FCF73BFF02994C
:103B7000012081F82C0003E001208DF80F0004E003
:103B8000FFE700208DF80F00FFE79DF80F0004B05D
:103B900080BD000080B586B0049003910292049825
:103BA00090F82C008DF807009DF80700022804D13A
:103BB000FFE702208DF817002CE09DF80700012890
:103BC00005D0FFE79DF8070005281AD1FFE7049903
:103BD000022081F82C00049800680399029AFCF7EF
:103BE00011FF03980068022805D1FFE7049905201A
:103BF00081F82C0004E00499012081F82C00FFE7F3
:103C000003E001208DF8170004E0FFE700208DF8A5
:103C10001700FFE79DF8170006B080BD81B0009047
:103C200001B0704780B588B0079007980068406879
:103C3000069007980068806805909DF8140000F0D1
:103C400040010020B0EB911F11D1FFE70598C0079C
:103C500068B1FFE79DF8180000F040010020B0EBCC
:103C6000911F04D0FFE70798016C8847F0E09DF8AA
:103C7000140000F002010020B0EB510F0BD0FFE761
:103C80009DF818100020B0EBD11F04D0FFE7079873
:103C9000416C8847DCE09DF8140000F02001002012
:103CA000B0EB511F10D1FFE79DF8140000F0400168
:103CB0000020B0EB911F07D1FFE79DF81500C0076A
:103CC000002800F0C580FFE79DF8180000F02001F3
:103CD0000020B0EB511F00F0BB80FFE79DF81400FF
:103CE00000F040010020B0EB911F28D0FFE70798BB
:103CF00090F85100032813D0FFE70799486D40F072
:103D000004004865FFE70020049007980068C06839
:103D1000049007980068806804900498FFE70DE01D
:103D2000FFE70020039007980068C0680390079899
:103D30000068806803900398FFE789E0FFE79DF83B
:103D4000140000F020010020B0EB511F15D0FFE758
:103D50000799486D40F001004865FFE70020029098
:103D6000079800688068029007980168086820F04A
:103D7000400008600298FFE7FFE79DF81500C007C4
:103D800078B1FFE70799486D40F008004865FFE704
:103D90000020019007980068806801900198FFE773
:103DA000FFE70798406D002851D0FFE707980168AA
:103DB000486820F0E00048600799012081F8510030
:103DC000069800F00200022805D0FFE79DF81800D1
:103DD000C007B8B3FFE707980168486820F0030000
:103DE00048600798C06CA0B1FFE70798C16C46F225
:103DF000BD70C0F6000008650798C06CFDF7F4FAC6
:103E000030B1FFE70799486D40F040004865FFE793
:103E1000FFE70798806CA0B1FFE70798816C46F236
:103E2000BD70C0F6000008650798806CFDF7DCFAED
:103E300030B1FFE70799486D40F040004865FFE763
:103E4000FFE703E00798FFF7E9FEFFE7FFE7FFE77B
:103E500008B080BD80B582B00190019802F0D4FC1A
:103E600002B080BD81B0009001B0704781B0009079
:103E700001B0704784B00290019100200090FFE7EC
:103E8000029890F83C00012804D1FFE702208DF849
:103E90000F0044E00299012081F83C00FFE7FFE7B2
:103EA000009820F0FF000199C9680843009000982D
:103EB00020F440700199896808430090009820F42C
:103EC00080600199496808430090009820F40060E0
:103ED0000199096808430090009820F480500199E6
:103EE000096908430090009820F40050019949693D
:103EF00008430090009820F480400199C969084364
:103F000000900098029909684864FFE70299002030
:103F100081F83C00FFE700208DF80F00FFE79DF8D7
:103F20000F0004B07047000085B003900291FFE7D6
:103F3000039890F83C00012804D1FFE702208DF897
:103F400013007EE00399012081F83C00FFE7FFE7C2
:103F50000399022081F83D000398006840680190B1
:103F60000398006880680090019820F0700001902C
:103F70000298016801980843019001980399096823
:103F80004860039800680021C4F2010188423CD0D7
:103F9000FFE703980068B0F1804F36D0FFE7039841
:103FA000006840F20041C4F2000188422DD0FFE7D2
:103FB0000398006840F60001C4F20001884224D052
:103FC000FFE70398006840F60041C4F20001884210
:103FD0001BD0FFE70398006840F20041C4F20101E2
:103FE000884212D0FFE70398006844F20001C4F24F
:103FF0000101884209D0FFE70398006841F60001FB
:10400000C4F2000188420ED1FFE7009820F0800042
:104010000090029841680098084300900098039926
:1040200009688860FFE70399012081F83D00FFE7F8
:104030000399002081F83C00FFE700208DF8130071
:10404000FFE79DF8130005B07047000080B582B00F
:104050000090009820B9FFE701208DF807003FE0AD
:10406000009890F83D0040B9FFE70099002081F8E2
:104070003C00009800F038F8FFE70099022081F832
:104080003D00009951F8040B02F084FC00990120D6
:1040900081F84600FFE70099012081F83E00009971
:1040A00081F83F00009981F84000009981F84100B3
:1040B000FFE7FFE70099012081F84200009981F8AD
:1040C0004300009981F84400009981F84500FFE71A
:1040D0000099012081F83D0000208DF80700FFE7DE
:1040E0009DF8070002B080BD80B58CB00B900B9896
:1040F000006840F20041C4F20101884225D1FFE787
:10410000FFE700200A9043F64400C4F20200016871
:1041100041F002010160006800F002000A900A9874
:10412000FFE72C200490002205921146FEF72EFD99
:104130000498FEF721FD059A2D2006901146FEF702
:1041400025FD0698FEF718FD6EE00B98006844F612
:104150000001C4F2010188421BD1FFE7FFE7002004
:10416000099043F64400C4F20200016841F4802142
:104170000160006800F4802009900998FFE71A2088
:10418000039000221146FEF701FD0398FEF7F4FCB0
:1041900049E00B98006841F60041C4F200018842F2
:1041A0001BD1FFE7FFE70020089043F64000C4F270
:1041B0000200016841F080010160006800F08000A9
:1041C00008900898FFE72C20029000221146FEF785
:1041D000DDFC0298FEF7D0FC24E00B98006842F268
:1041E0000001C4F2000188421BD1FFE7FFE7002075
:1041F000079043F64000C4F20200016841F4807168
:104200000160006800F4807007900798FFE72D2098
:10421000019000221146FEF7B9FC0198FEF7ACFCB4
:10422000FFE7FFE7FFE7FFE70CB080BD83B0019039
:10423000019890F83D00012804D0FFE701208DF897
:104240000B006AE00199022081F83D0001980168A5
:10425000C86840F00100C860019800680021C4F2FD
:10426000010188423CD0FFE701980068B0F1804F1F
:1042700036D0FFE70198006840F20041C4F2000127
:1042800088422DD0FFE70198006840F60001C4F293
:104290000001884224D0FFE70198006840F6004101
:1042A000C4F2000188421BD0FFE70198006840F289
:1042B0000041C4F20101884212D0FFE70198006872
:1042C00044F20001C4F20101884209D0FFE70198DD
:1042D000006841F60001C4F20001884212D1FFE7F4
:1042E00001980068806800F0070000900098062898
:1042F00007D0FFE701980168086840F001000860F6
:10430000FFE706E001980168086840F001000860D6
:10431000FFE700208DF80B00FFE79DF80B0003B0CE
:104320007047000080B586B00490039100208DF89E
:104330000B00FFE7049890F83C00012804D1FFE748
:1043400002208DF81700ABE00499012081F83C00B1
:10435000FFE7FFE70499022081F83D000498006818
:1043600080680190019820F077000190019820F476
:104370007F4001900198049909688860039800685B
:104380000090002872D0FFE7009810286ED0FFE759
:10439000009820286AD0FFE70098302866D0FFE711
:1043A0000098402855D0FFE70098502837D0FFE705
:1043B0000098602840D0FFE7009870280BD0FFE7F6
:1043C0000098B0F5805F05D0FFE70098B0F5005F7A
:1043D00016D052E055E004980068039B5A6899682B
:1043E000DB6802F0A9FB04980068806801900198DE
:1043F00040F077000190019804990968886040E0D6
:1044000004980068039B5A689968DB6802F094FB83
:1044100004980168886840F48040886031E004981E
:104420000068039A5168D26802F072FD049800682F
:10443000502102F09BFB24E004980068039A516825
:10444000D26802F08DFD04980068602102F08EFBB6
:1044500017E004980068039A5168D26802F058FD8A
:1044600004980068402102F081FB0AE0049800688B
:104470000399096802F07AFB03E001208DF80B0034
:10448000FFE70499012081F83D00FFE7049900202F
:1044900081F83C00FFE79DF80B008DF81700FFE75F
:1044A0009DF8170006B080BD81B0009001B0704744
:1044B00080B584B0039003980068C06802900398A8
:1044C0000068006901909DF804008007002824D549
:1044D000FFE79DF80800800700281DD5FFE7039837
:1044E00001686FF0020008610399012008770398C2
:1044F00000688069800720B1FFE70398FFF7D4FFC9
:1045000006E0039800F040F9039800F035FAFFE761
:10451000039900200877FFE7FFE79DF804004007B4
:10452000002825D5FFE79DF80800400700281ED584
:10453000FFE7039801686FF0040008610399022007
:10454000087703980068806910F4407F04D0FFE783
:104550000398FFF7A9FF06E0039800F015F9039808
:1045600000F00AFAFFE7039900200877FFE7FFE76A
:104570009DF804000007002824D5FFE79DF80800F7
:10458000000700281DD5FFE7039801686FF00800B9
:10459000086103990420087703980068C0698007C0
:1045A00020B1FFE70398FFF77FFF06E0039800F0D4
:1045B000EBF8039800F0E0F9FFE703990020087793
:1045C000FFE7FFE79DF80400C006002825D5FFE7B8
:1045D0009DF80800C00600281ED5FFE70398016873
:1045E0006FF01000086103990820087703980068AD
:1045F000C06910F4407F04D0FFE70398FFF754FF31
:1046000006E0039800F0C0F8039800F0B5F9FFE762
:10461000039900200877FFE7FFE79DF80400C00733
:1046200078B1FFE79DF80800C00748B1FFE703989D
:1046300001686FF001000861039800F0A1F9FFE73D
:10464000FFE79DF804000006002810D5FFE79DF85D
:1046500008000006002809D5FFE7039801686FF0FD
:10466000800008610398FFF7FDFBFFE7FFE79DF877
:1046700004004006002810D5FFE79DF8080040061A
:10468000002809D5FFE7039801686FF04000086132
:10469000039800F0A1F9FFE7FFE79DF8040080060A
:1046A000002810D5FFE79DF808008006002809D5EE
:1046B000FFE7039801686FF0200008610398FFF797
:1046C000D5FBFFE7FFE704B080BD000080B58EB0EA
:1046D0000D9000200C900B900A90099008900D9876
:1046E000006840F20041C4F2010188424AD1FFE76C
:1046F000FFE70020079043F63000C4F20200016893
:1047000041F004010160006800F004000790079880
:10471000FFE7FFE70020069043F63000C4F20200F6
:10472000016841F480710160006800F480700690B7
:104730000698FFE74020019008900220029009901F
:10474000002003900A900B90032004900C9040F6F8
:104750000000C4F2020008A90591FDF7EDF8DDF8AC
:1047600004C0029B039A04980599CDF820C00993D0
:104770000A920B920C9042F20000C4F20200FDF784
:10478000DBF8FFE70EB080BD81B0009001B070474C
:1047900080B586B004900391029200208DF8070046
:1047A000FFE7049890F83C00012804D1FFE70220BD
:1047B0008DF8170089E00499012081F83C00FFE79B
:1047C000FFE7029800900C2800F270800099DFE863
:1047D00001F0076D6D6D206D6D6D3A6D6D6D53005F
:1047E00004980068039902F0D7F904980168886971
:1047F00040F00800886104980168886920F004008E
:104800008861039802690498016888691043886187
:1048100050E004980068039902F034FA04980168A3
:10482000886940F40060886104980168886920F410
:10483000806088610398026904980168886940EA89
:104840000220886136E004980068039902F094FA27
:1048500004980168C86940F00800C86104980168BC
:10486000C86920F00400C8610398026904980168CF
:10487000C8691043C8611DE004980068039902F0FC
:10488000F5FA04980168C86940F40060C8610498AA
:104890000168C86920F48060C861039802690498BF
:1048A0000168C86940EA0220C86103E001208DF870
:1048B0000700FFE7FFE70499002081F83C00FFE7CD
:1048C0009DF807008DF81700FFE79DF8170006B068
:1048D00080BD000080B582B00090009820B9FFE74D
:1048E00001208DF807003FE0009890F83D0040B9A6
:1048F000FFE70099002081F83C00009800F038F8AC
:10490000FFE70099022081F83D00009951F8040B5F
:1049100002F040F80099012081F84600FFE7009975
:10492000012081F83E00009981F83F00009981F84C
:104930004000009981F84100FFE7FFE7009901205E
:1049400081F84200009981F84300009981F8440001
:10495000009981F84500FFE70099012081F83D00AA
:1049600000208DF80700FFE79DF8070002B080BD2A
:1049700081B0009001B0704781B0009001B07047E5
:1049800080B582B001900198006844F60001C4F23D
:104990000101884203D1FFE7FBF72CFF19E00198E2
:1049A000006841F60041C4F20001884203D1FFE7EC
:1049B000FBF728FF0CE00198006842F20001C4F206
:1049C0000001884203D1FFE7FBF724FFFFE7FFE781
:1049D000FFE702B080BD000081B0009001B07047D9
:1049E000FFE7FEE780B540F2E000C2F20100FDF70C
:1049F000DDF980BD80B540F2E000C2F20100FDF7B4
:104A000093FA80BD81B000900098C06AB0F52A0F7B
:104A100004D1FFE700990120C8620BE00098C06A4A
:104A2000B0F12A4F04D1FFE700990820C86200E0E6
:104A3000FFE7FFE701B0704780B584B00390002026
:104A400002900398806B0190019890F83D008DF8DA
:104A5000030040F20000C2F20000006848F21F515B
:104A6000C5F2EB11A0FB0110C00844F6D351C1F20E
:104A70006201A0FB01108009232148430290FFE757
:104A8000029830B9FFE70199086C40F020000864F3
:104A90000CE0029801380290FFE701980068006876
:104AA00000F40070B0F5007FEAD0FFE70198406B9A
:104AB00028B1FFE70198416B0020C863FFE7019828
:104AC000806B28B1FFE70198816B0020C863FFE786
:104AD00001980168086820F480600860019900204E
:104AE00048850198406B28B1FFE70198416B002091
:104AF0000865FFE70198806B28B1FFE70198816B9B
:104B000000200865FFE701980168086820F00100AF
:104B10000860019890F83D0060280ED1FFE70199E8
:104B2000202081F83D000199002081F83E00019984
:104B300008640198FDF72EF927E09DF8030000F0C6
:104B40002800282814D1FFE701980168086840F080
:104B50000100086001980168086840F480600860FE
:104B60000199002008630199282081F83D0008E0A0
:104B70000199202081F83D000199002081F83E0034
:104B8000FFE70198FDF7B6FBFFE704B080BD00002A
:104B900081B00090009800684069C1B20020B0EB7D
:104BA000D11F05D0FFE70098016800200861FFE7EA
:104BB00001B0704780B584B00390039890F83D0031
:104BC0008DF80B00039890F83E008DF80A009DF8D0
:104BD0000A00102805D0FFE79DF80A0040280CD1F4
:104BE000FFE79DF80B00222807D1FFE70398016833
:104BF000086820F400600860FFE79DF80B0000F0F3
:104C00002800282808D1FFE70399002008630399AA
:104C1000282081F83D001AE003980068406800F4FD
:104C20000060B0F5006F0ED0FFE79DF80B00602824
:104C300009D0FFE70399202081F83D000399002067
:104C400081F83E00FFE7039900200863FFE703981F
:104C500000684068000500285DD5FFE703980168FB
:104C6000486820F4006048600398406B90F8350075
:104C700001281DD0FFE70398416B44F63920C0F6A8
:104C8000000008650398406BFCF7AEFB78B1FFE7C6
:104C900003980168086820F001000860039920204B
:104CA00081F83D000398406B016D8847FFE731E0D4
:104CB0000398816B44F63920C0F60000086503981C
:104CC000806BFCF791FB20B3FFE703980068406915
:104CD00000F040010120B0EB911F0BD1FFE70398DA
:104CE000006800690399496A08700399486A0130AD
:104CF0004862FFE703980168086820F00100086037
:104D00000399202081F83D000398806B016D88474E
:104D1000FFE7FFE745E0039890F83D00602826D1C3
:104D2000FFE70399202081F83D00039900200864E3
:104D300003980068406900F040010120B0EB911F2A
:104D40000BD1FFE70398006800690399496A08706E
:104D50000399486A01304862FFE7039801680868D0
:104D600020F0010008600398FDF714F818E003989C
:104D70000068406900F040010120B0EB911F0BD1A9
:104D8000FFE70398006800690399496A087003996E
:104D9000486A01304862FFE70398FDF7ABFAFFE786
:104DA000FFE70398006C0190019800F001000128D2
:104DB00012D0FFE7019800F0020002280CD0FFE7B4
:104DC000019800F00400042806D0FFE79DF80400D5
:104DD0000007002807D5FFE703980168486820F41A
:104DE000E0604860FFE7039890F83D008DF80B0005
:104DF0000398006C4007002818D5FFE79DF80B00CA
:104E0000282813D1FFE703990020CFF6FF70C8626E
:104E1000039900200863039A202182F83D1003992A
:104E200081F83E000398FDF769FAFFE704B080BD02
:104E300080B582B001900198C06A00900198408DC1
:104E4000042815D1FFE701980168486820F48060C4
:104E500048600198006800690199496A08700199E1
:104E6000486A013048620199488D01384885B3E0AD
:104E70000198408D032824D1FFE701980168486814
:104E800020F480604860009804280BD0FFE7009869
:104E9000022807D0FFE701980168086820F48060C5
:104EA0000860FFE70198006800690199496A087085
:104EB0000199486A013048620199488D0138488556
:104EC00089E00198408D022875D1FFE700980128FC
:104ED00004D0FFE70098102807D1FFE70198016888
:104EE000086820F48060086016E00098042804D068
:104EF000FFE70098022807D1FFE7019801680868DA
:104F000040F48060086006E001980168086840F499
:104F100000700860FFE7FFE70198006800690199E9
:104F2000496A08700199486A013048620199488DC0
:104F3000013848850198006800690199496A08703C
:104F40000199486A013048620199488D01384885C5
:104F500001980168486820F4407048600199202059
:104F600081F83D00019890F83E0040280AD1FFE703
:104F70000199002081F83E00019908630198FDF72E
:104F8000C9F917E00199002081F83E00009808282F
:104F900004D0FFE70098202804D1FFE70199002002
:104FA000086303E0019912200863FFE70198FDF709
:104FB000A9F9FFE70EE00198006800690199496AC4
:104FC00008700199486A013048620199488D01389A
:104FD0004885FFE7FFE7FFE702B080BD80B584B0FA
:104FE0000390039890F83D00222840F0AA80FFE744
:104FF0000398C06A01900398408D0290029804289B
:105000001BD3FFE70398006800690399496A087099
:105010000399486A013048620399488D01384885F0
:105020000398408D032807D1FFE70398016848687B
:1050300020F480604860FFE782E00398C06A02289D
:1050400076D0FFE70298012804D0FFE702980028F5
:105050006ED1FFE7039800F0E3FE002847D1FFE799
:1050600003980168086820F480600860039801686C
:10507000486820F4E060486003980068006903997C
:10508000496A08700399486A013048620399488D5B
:10509000013848850399202081F83D00039890F855
:1050A0003E0040280AD1FFE70399002081F83E0026
:1050B000039908630398FDF72DF917E00399002081
:1050C00081F83E000198082804D0FFE701982028C5
:1050D00004D1FFE703990020086303E0039912203D
:1050E0000863FFE70398FDF70DF9FFE71FE003985A
:1050F0000168486820F4E06048600398006800692F
:105100000399496A08700399486A01304862039913
:10511000488D013848850399202081F83D00039986
:10512000002081F83E000398FDF7E4F8FFE706E071
:1051300003980168486820F480604860FFE7FFE753
:10514000FFE704B080BD000080B582B001900198F7
:10515000C06A0090019890F83D00212860D1FFE7D7
:105160000198408D70B1FFE701980168406A0078AE
:1051700008610199486A013048620199488D0138F7
:1051800048854CE0009808281ED0FFE700982028AA
:105190001AD0FFE7009810F5803F15D0FFE701987F
:1051A0000168486820F4E0604860019911200863B4
:1051B0000199002081F83E000199202081F83D00EE
:1051C0000198FDF7A3F829E001980168486820F4E8
:1051D000E060486001980168086840F40070086069
:1051E0000199002008630199202081F83D00019871
:1051F00090F83E00402808D1FFE70199002081F88F
:105200003E000198FDF78AF807E00199002081F837
:105210003E000198FDF77AF8FFE7FFE7FFE700E0BF
:10522000FFE702B080BD000080B584B00390039812
:1052300090F83D008DF80B00039890F83E008DF833
:105240000A000398C06A01900398008D002852D18B
:10525000FFE79DF80B0021284DD1FFE701980828B2
:105260001ED0FFE7019820281AD0FFE7019810F51B
:10527000803F15D0FFE703980168486820F4E0609C
:1052800048600399112008630399002081F83E00CB
:105290000399202081F83D000398FDF737F829E0B5
:1052A00003980168486820F4E0604860039801684A
:1052B000086840F4007008600399002008630399AF
:1052C000202081F83D00039890F83E00402808D146
:1052D000FFE70399002081F83E000398FDF71EF8D0
:1052E00007E00399002081F83E000398FDF70EF8CF
:1052F000FFE7FFE735E09DF80B0021280AD0FFE724
:105300009DF80A0040282AD1FFE79DF80B002228CB
:1053100025D1FFE70398408D38B9FFE7039801686E
:10532000486820F48060486018E0039890F83E00D8
:10533000402804D1FFE7039800F052FA0DE00398EB
:105340000168406A007808610399486A0130486240
:105350000399488D01384885FFE7FFE700E0FFE744
:10536000FFE704B080BD000081B000900098406C61
:10537000C0B20099096808610098406B28B1FFE746
:105380000098406BC06B48B9FFE70098806B60B134
:10539000FFE70098806BC06B38B1FFE700980168A9
:1053A000486840F400604860FFE701B070470000C3
:1053B0008EB00D900D9890F83E008DF833000D984A
:1053C000C06A0B900D98006B0A900D9890F83D0004
:1053D000222840F07C81FFE70D98006D98B9FFE727
:1053E0009DF8330040280ED1FFE7FFE70020099029
:1053F0000D980068406909900D98006880690990CF
:105400000998FFE762E10D98006DF0B9FFE70D988C
:105410000069B0F5404F18D1FFE7FFE70020089082
:105420000D980068406908900D98006880690890A0
:105430000898FFE70D980168086840F480700860DC
:105440000D99086D013008653FE10D98408DA0B9B8
:10545000FFE7FFE7002007900D980068406907907C
:105460000D980068806907900798FFE70D9801681C
:10547000086840F40070086023E10D98408D012811
:1054800040F09080FFE70B9810F5803F36D1FFE7A2
:105490000D980168086820F4806008600D98006825
:1054A00040680005002814D5FFE70D9801680868DA
:1054B00020F480600860FFE7002006900D980068E7
:1054C000406906900D980068806906900698FFE78D
:1054D00013E0FFE7002005900D98006840690590F3
:1054E0000D980068806905900598FFE70D980168A0
:1054F000086840F400700860FFE752E00B98082845
:1055000034D0FFE70B98202830D0FFE70A98122804
:1055100004D1FFE70B98012828D1FFE70B98042856
:105520000FD0FFE70B9802280BD0FFE70B9810284D
:1055300007D0FFE70D980168086820F480600860D4
:1055400006E00D980168086840F480600860FFE795
:10555000FFE7002004900D980068406904900D98C2
:105560000068806904900498FFE719E00D980168CD
:10557000086820F480600860FFE7002003900D9821
:105580000068406903900D98006880690390039853
:10559000FFE70D980168086840F400700860FFE7B5
:1055A000FFE78DE00D98408D022851D1FFE70B9861
:1055B000042815D0FFE70B98022811D0FFE70B98BD
:1055C00010280DD0FFE70D980168086820F480606E
:1055D00008600D980168086840F40060086006E003
:1055E0000D980168086840F480600860FFE70D9836
:1055F00000684068000500281CD5FFE70B9810F5EF
:10560000803F10D0FFE70B9801280CD0FFE70B98E4
:10561000082808D0FFE70B98102804D0FFE70B9864
:10562000202807D1FFE70D980168486840F48050B2
:105630004860FFE7FFE7002002900D98006840698E
:1056400002900D980068806902900298FFE736E0AA
:105650000D980168086840F4806008600D98006843
:105660004068000500281CD5FFE70B9810F5803F27
:1056700010D0FFE70B9801280CD0FFE70B98082803
:1056800008D0FFE70B98102804D0FFE70B982028DC
:1056900007D1FFE70D980168486840F480504860E2
:1056A000FFE7FFE7002001900D9800684069019036
:1056B0000D980068806901900198FFE7FFE7FFE718
:1056C000FFE70D9900200865FFE7FFE70DE0FFE722
:1056D000002000900D980068406900900D980068C7
:1056E000806900900098FFE7FFE70EB07047000068
:1056F00081B00090009890F83E00402816D1FFE756
:105700000098006D40B9FFE70098406C00F0FE0083
:1057100000990968086108E00098406C40F00100B9
:10572000C0B2009909680861FFE757E00098006976
:10573000B0F5804F31D1FFE7009890F83D00212867
:1057400008D1FFE70098406C00F0FE00009909685E
:10575000086108E00098406C40F00100C0B2009978
:1057600009680861FFE70098406B28B1FFE70098DF
:10577000406BC06B48B9FFE70098806B60B1FFE7F2
:105780000098806BC06B38B1FFE7009801684868EB
:1057900040F400604860FFE71FE00098006D50B9DA
:1057A000FFE70098406C00F44070C009F0300099A9
:1057B0000968086110E00098006D01280AD1FFE730
:1057C0000098406C00F44070C009F13000990968FD
:1057D000086100E0FFE7FFE7FFE7FFE701B0704780
:1057E00080B582B00190019890F83D008DF80300DB
:1057F0000198006DE8B9FFE70198C06C01280BD152
:10580000FFE70198806CC0B20199096808610199AD
:10581000086D023008650BE00198806C80B2000AC8
:105820000199096808610199086D01300865FFE771
:1058300068E00198006D01280BD1FFE70198806CAA
:10584000C0B20199096808610199086D01300865C5
:1058500057E00198006D02284ED1FFE79DF8030044
:1058600022280BD1FFE701980168086840F4807096
:1058700008600199086D013008653CE00198408D91
:1058800098B1FFE79DF8030021280ED1FFE70198AA
:105890000168406A007808610199486A01304862ED
:1058A0000199488D0138488524E00198408DF8B968
:1058B000FFE79DF8030021281AD1FFE7019801684E
:1058C000486820F4E060486001980168086840F486
:1058D00000700860019900200863019A202182F875
:1058E0003D10019981F83E000198FCF717FD00E09A
:1058F000FFE7FFE7FFE703E00198FFF749F9FFE75C
:10590000FFE7FFE702B080BD81B000900098408DB6
:1059100078B1FFE70098006800690099496A08704B
:105920000099486A013048620099488D01384885DD
:10593000FFE701B07047000080B582B00190019888
:1059400090F83D008DF803000198408D48B3FFE7C3
:105950000198006800690199496A08700199486ACC
:10596000013048620199488D013848850198408D81
:10597000B0B9FFE79DF803002A2811D1FFE701988D
:105980000168486820F4806048600199222008631B
:105990000199282081F83D000198FCF7C3FCFFE73E
:1059A000FFE702B080BD000081B000900098408DFC
:1059B00070B1FFE700980168406A007808610099BB
:1059C000486A013048620099488D01384885FFE7F0
:1059D00001B0704780B582B00190019890F83D0009
:1059E0008DF803000198408D40B3FFE701980168EE
:1059F000406A007808610199486A0130486201995B
:105A0000488D013848850198408DB0B9FFE79DF871
:105A10000300292811D1FFE701980168486820F4A4
:105A2000806048600199212008630199282081F84D
:105A30003D000198FCF77AFCFFE7FFE702B080BD6C
:105A400080B584B00390029100208DF80700039880
:105A500090F83D0000F02800282832D1FFE7039895
:105A60000168486820F4806048609DF8080000F0F4
:105A700004010020B0EB910F04D1FFE701208DF865
:105A80000700FFE79DF808100020B0EBD11F05D1FB
:105A9000FFE70398C068ADF8040004E0039880694C
:105AA000ADF80400FFE7FFE70399002081F83C0010
:105AB000FFE703989DF80710BDF80420FCF76EF986
:105AC00013E0FFE700200090039800684069009011
:105AD00003980068806900900098FFE7FFE703994A
